ZNT-001042MARCK PIERRE             CHECKING  +00184733000005000000A2024-01-152026-03-05       
ZNT-001099JAMES THORNTON           CHECKING  +00000741200005000000A2023-06-102026-03-06       
ZNT-002001LUCIA SANTOS             SAVINGS   +00065000000000000000A2022-03-202026-03-05       
ZNT-003300DELTA HOLDINGS LLC       BUSINESS  +00382048800005000000A2021-11-012026-03-07       
ZNT-004501TERRENCE WADE            CHECKING  -00008920000001000000A2025-08-142026-03-05       
ZNT-INTERNZENTRA INTERNAL          INTERNAL  +99999999900000000000A2020-01-012026-03-07       
