ZNT-001042MARCK PIERRE             CHECKING   +001847330000500000A2024-01-152026-03-05       
ZNT-001099JAMES THORNTON           CHECKING   +000007412000050000A2023-06-102026-03-06       
ZNT-002001LUCIA SANTOS             SAVINGS    +000650000000000000A2022-03-202026-03-05       
ZNT-003300DELTA HOLDINGS LLC       BUSINESS   +003820488000500000A2021-11-012026-03-07       
ZNT-004501TERRENCE WADE            CHECKING   -000089200000100000A2025-08-142026-03-05       
ZNT-INTERNAL-ZENTRA               INTERNAL   +999999999000000000A2020-01-012026-03-07       
