2026-03-07ZNT-001042DEP00000250000          DIRECT DEPOSIT PAYROLL        PND                       
2026-03-07ZNT-001042WDR00000084750          RENT PAYMENT AUTOPAY          PND                       
2026-03-07ZNT-001099WDR00000012345          GROCERY STORE PURCHASE        PND                       
2026-03-07ZNT-002001DEP00000100000          ACH TRANSFER INCOMING         PND                       
2026-03-07ZNT-002001XFR00000050000ZNT-001042TRANSFER TO CHECKING          PND                       
2026-03-07ZNT-003300WDR00001234560          PAYROLL RUN MARCH W2          PND                       
2026-03-07ZNT-003300DEP00010000000          BUSINESS REVENUE Q1           PND                       
2026-03-07ZNT-001099WDR00000200000          CASH WITHDRAWAL               PND                       
2026-03-07ZNT-999999DEP00000100000          UNKNOWN ACCOUNT E01           PND                       
2026-03-07ZNT-004501WDR00000500000          EXCEEDS BALANCE E04           PND                       
2026-03-07ZNT-001042WDR00000000000          ZERO AMOUNT TEST E03          PND                       
2026-03-07ZNT-003300WDR00010000001          OVER LIMIT TEST E05           PND                       
