2026-03-07ZNT-001042DEP000250000          DIRECT DEPOSIT PAYROLLPND   
2026-03-07ZNT-001042WDR000084750          RENT PAYMENT AUTOPAY  PND   
2026-03-07ZNT-001099WDR000012345          GROCERY STORE PURCHASE PND  
2026-03-07ZNT-002001DEP000100000          ACH TRANSFER INCOMING PND   
2026-03-07ZNT-002001XFR000050000ZNT-001042TRANSFER TO CHECKING  PND   
2026-03-07ZNT-003300WDR001234560          PAYROLL RUN MARCH W2  PND   
2026-03-07ZNT-003300DEP010000000          BUSINESS REVENUE Q1   PND   
2026-03-07ZNT-001099WDR000200000          CASH WITHDRAWAL       PND   
2026-03-07ZNT-999999DEP000100000          UNKNOWN ACCOUNT E01   PND   
2026-03-07ZNT-004501WDR000500000          EXCEEDS BALANCE  E04  PND   
2026-03-07ZNT-001042WDR000000000          ZERO AMOUNT TEST E03  PND   
2026-03-07ZNT-003300WDR010000001          OVER LIMIT TEST  E05  PND   
